:100000000C9434000C9451000C9451000C94510049
:100010000C9453000C9448010C9451000C941B0256
:100020000C9451000C9451000C9451000C94020259
:100030000C9451000C9451000C94C5010C94510087
:100040000C9451000C9451000C9451000C945100EC
:100050000C9451000C9451000C9451000C945100DC
:100060000C9451000C94510011241FBECFEFD8E026
:10007000DEBFCDBF11E0A0E0B1E0E2E6F3E102C0F7
:1000800005900D92A235B107D9F721E0A2E5B1E0C4
:1000900001C01D92A636B207E1F70E94C4030C947A
:1000A000AF090C9400001F920F920FB60F9211240B
:1000B0002F933F938F939F9386B190E09C0135954A
:1000C000279521702093650195958795959587953E
:1000D00081708093600180916101811117C08091CE
:1000E0006501813039F490916001911103C08093D2
:1000F00062016CC080916501811120C08091600116
:100100008130E1F482E0809362010FC0809161014F
:10011000813009F04DC08091650181113FC080910F
:10012000600181113BC01092620180910A0190919F
:100130000B01019790930B0180930A0180910A01B2
:1001400090910B01C3970CF067C082E390E090930D
:100150000B0180930A018091540190915501892BE4
:1001600009F065C020910A0130910B0180910001D6
:10017000909101012817390744F080910201909174
:10018000030190930B0180930A019F918F913F91FE
:100190002F910F900FBE0F901F90189580916501C1
:1001A000813061F680916001813041F683E09FCF1C
:1001B000809161018230E1F48091650181110CC070
:1001C00080916001811108C01092620180910A0142
:1001D00090910B010196AECF80916501813009F0BD
:1001E000ADCF80916001813009F0A8CF83E08BCF43
:1001F00080916501813029F490916001992309F47F
:1002000082CF80916501811199CF80916001813009
:1002100009F094CF82E06BCF80910A0190910B019D
:100220008A3591050CF497CF8AE590E090CF8091C4
:10023000540190915501019709F0A7CF20910A012F
:1002400030910B0180910201909103018217930775
:100250000CF49BCF809100019091010192CF90E02E
:10026000982F8827860F911D4AE0489F9001499F4B
:10027000300D112449E0429FC001439F900D11248D
:1002800060E570E00E948806CB01805C9E4F089577
:100290001F920F920FB60F9211248F939F9389B1E3
:1002A00084708093640189B1887080936301809128
:1002B0006401811112C01092550110925401809175
:1002C00002019091030190930B0180930A0181E058
:1002D00090E09093530180935201809163018111CA
:1002E00014C081E090E09093550180935401809177
:1002F00000019091010190930B0180930A0182E02B
:1003000090E09093530180935201109285001092D7
:100310008400809181008560809381009F918F91FE
:100320000F900FBE0F901F90189516BC85B5886072
:1003300085BDEEE6F0E080818260808389E887BD3C
:100340000895E1E8F0E080818860808384E294EFA2
:100350009093890080938800EFE6F0E080818260CE
:1003600080830895E0E7F0E0808182608083E0EBA5
:10037000F0E0808183608083808180688083E1EB0E
:10038000F0E080818760808308951F920F920FB6FE
:100390000F9211248F939F93AF93BF938091040189
:1003A00090910501A0910601B0910701892B8A2B3C
:1003B0008B2BC1F485B58B7F85BD8FEA90E0A0E0E3
:1003C000B0E08093040190930501A0930601B093DF
:1003D0000701BF91AF919F918F910F900FBE0F902A
:1003E0001F90189585B190E2892785B98091040105
:1003F00090910501A0910601B09107010197A10913
:10040000B109DFCF1F920F920FB60F9211248F9375
:10041000EF93FF93E1E8F0E08081887F8083109282
:10042000530110925201FF91EF918F910F900FBEE7
:100430000F901F9018951F920F920FB60F921124D4
:100440008F939F9380910801909109018093B3004D
:100450009F918F910F900FBE0F901F901895249A27
:100460008FE599E00197F1F700C0000024988BE038
:1004700091E00197F1F700C000001C990AC01C9B95
:10048000FECF87EC90E00197F1F700C0000081E01B
:10049000089580E00895249A2C988AE08A95F1F7CF
:1004A00000C024982C988FEE90E00197F1F700C0DF
:1004B00000000895249A2C988FEE90E00197F1F7B0
:1004C00000C0000024982C989AE09A95F1F700C09B
:1004D0000895CF93DF93D82FC8E0D0FF08C00E94C3
:1004E0004B02D695C150C9F7DF91CF9108950E9474
:1004F0005A02F7CF0E942F02882331F08CEC0E9421
:10050000690284E40C9469020895249A2C988AE084
:100510008A95F1F700C024982C9895E39A95F1F705
:1005200000001C9B08C087EC90E00197F1F700C029
:10053000000081E0089587EC90E00197F1F700C09A
:10054000000080E008951F93CF93DF93D8E011E07F
:10055000C0E00E9485028111C12B110FD150C9F753
:100560008C2FDF91CF911F910895EF92FF920F93FF
:100570001F93CF93DF93CDB7DEB729970FB6F894CB
:10058000DEBF0FBECDBF24982C982FEF81EE94E0F4
:10059000215080409040E1F700C000001C990EC03F
:1005A00080E029960FB6F894DEBF0FBECDBFDF9175
:1005B000CF911F910F91FF90EF9008950E942F020D
:1005C000882371F38CEC0E9469028EEB0E94690211
:1005D0008E010F5F1F4F7E01EAE0EE0EF11C0E94BC
:1005E000A302F80181938F01EE15FF05C1F70E9468
:1005F0002F028823A9F28CEC0E9469028EE40E94EB
:1006000069028B810E9469028C810E9469028FE7D6
:100610000E9469028FE891E00197F1F700C00000A5
:100620000E942F02882309F4BBCF8CEC0E94690240
:1006300088E40E9469029FEFE9EFF0E09150E0400A
:10064000F040E1F700C0000081E0ABCFCF93DF9333
:10065000EC010E948502882301F10E942F02882369
:10066000D1F08CEC0E9469028EEB0E9469020E941C
:10067000A30288830E94A30289830E94A3020E948E
:10068000A3020E94A3020E94A3020E94A3020E944E
:10069000A3020E94A30281E001C080E0DF91CF911C
:1006A00008959BB19F709BB99BB1807F892B8BB9BB
:1006B000299A299A29980895CF93C82F28980E949B
:1006C00051038C2F8295807F0E9451038FE39FE11D
:1006D0000197F1F700C00000CF910895811104C087
:1006E00080E8860F0C945C0380ECFBCF8AB1806FAE
:1006F0008AB984B1836084B98FE59AEE0197F1F7E6
:1007000000C0000080E30E9451038FE19EE4019746
:10071000F1F700C0000080E30E9451038FED91E0EB
:100720000197F1F700C0000080E30E94510380E2CE
:100730000E9451038FE39FE10197F1F700C0000091
:1007400088E20E945C038FE00C945C03CF93C82F77
:10075000289A0E9451038C2F8295807F0E9451031A
:100760008FE39FE10197F1F700C00000CF9108955A
:10077000CF93DF93EC018991811103C0DF91CF9179
:1007800008950E94A603F7CFCF93DF93CDB7DEB7CE
:100790006B970FB6F894DEBF0FBECDBF0E947603F5
:1007A0000E9495010E94A1010E94B2010E94B5021F
:1007B0002C9888B1866088B9529853985A9A5B9A57
:1007C00080916800826080936800809168008460F6
:1007D0008093680080916C00866080936C008091AB
:1007E0006D008C6080936D0087B1886387B9259A0E
:1007F000239A789484E690E00E945E0990E09093BA
:100800000301809302018EE690E00E945E0990E071
:100810009093010180930001809102019091030166
:10082000C2973CF080910201909103018B359105B4
:1008300034F082E390E09093030180930201809171
:10084000000190910101C2973CF0809100019091CC
:1008500001018B35910534F08AE590E09093010118
:1008600080930001809102019091030190930B010C
:1008700080930A0181E00E945C0362E080E00E94B4
:100880006E038CE091E00E94B80361E081E00E9479
:100890006E038AE191E00E94B8032FEF37EA41E648
:1008A000215030404040E1F700C0000081E00E944C
:1008B0005C0360E081E00E946E0387E291E00E94A9
:1008C000B80368E081E00E946E038DE291E00E942F
:1008D000B80386B1869581708093650186B182FBED
:1008E000882780F980936001809160018111F5C0B3
:1008F000809165018111F1C01092610180916101C7
:100900008093620164E081E00E946E0380910201A5
:10091000909103019F938F9324E3E22E21E0F22E26
:10092000FF92EF921F9284E08F938E01095E1F4F1A
:100930001F930F930E94B006C8010E94B8036EE097
:1009400081E00E946E0380910001909101019F93CC
:100950008F93FF92EF921F9283E08F931F930F93D9
:100960000E94B006C8010E94B8030E94B5020E940E
:100970007A020FB6F894DEBF0FBECDBF3AE0232E49
:10098000312C9E012F5F3F4F29014CE3A42EB12C47
:100990003E013DE0630E711C88248394912C94E306
:1009A000C92E91E0D92ECE014A960E9426038823B3
:1009B00009F400C16A8D8B8D0E942F01B1010E9444
:1009C00088067B019F938F93FF926F9348E351E0DA
:1009D0005F934F931F929EE09F935F924F920E946E
:1009E000B00629EEA7012403C001259F900D112414
:1009F000B5010E949C066E5C7F4F70930901609365
:100A0000080180915201909153010FB6F894DEBF16
:100A10000FBECDBF019709F078C0409102015091FF
:100A200003012403C001259F900D1124B5010E94EC
:100A30009C066E5C7F4F7093090160930801809162
:100A40000801909109010C9708F06BC08CE090E0D0
:100A50009093090180930801809108019091090108
:100A60009F938F9342E451E05F934F931F928AE0EC
:100A70008F937F926F920E94B0066DE080E00E949B
:100A80006E03C3010E94B80380910201909103019B
:100A90000FB6F894DEBF0FBECDBFE816F90608F01A
:100AA0004EC0439888B1806388B9809100019091CD
:100AB000010103968E159F0508F050C080915801E2
:100AC00090915901892B09F049C085B5846085BD95
:100AD000909259018092580150C08091600181111B
:100AE00008C080916501882321F081E08093610135
:100AF00005CF80916001882331F0809165018111DB
:100B000002C082E0F3CF83E0F1CF80915201909157
:100B10005301029709F093CF4091000150910101D8
:100B200080CF8091080190910901849708F494CFB7
:100B300023E230E030930901209308018DCF8091AA
:100B40000001909101018E159F0520F4459888B110
:100B50008861AACF449888B18862A6CF80910201AB
:100B6000909103010397E816F90638F48091580133
:100B700090915901892B09F4A8CF8091000190919F
:100B8000010103968E159F0560F0809102019091FE
:100B900003010397E816F90620F01092590110920C
:100BA000580160E080E00E946E03C2010E94B80319
:100BB0000E947A028091540190915501892B09F08D
:100BC00046C0209102013091030180910001909173
:100BD00001012817390784F480910A0190910B01D3
:100BE00090930301809302016091020170910301CF
:100BF00084E690E00E94660960E081E00E946E0356
:100C000085E491E00E94B80368E081E00E946E03F1
:100C10008DE291E00E94B80365E081E00E946E03DE
:100C200080910201909103019F938F93DF92CF9265
:100C30001F9284E08F931F930F930E94B006C80108
:100C40000E94B8030FB6F894DEBF0FBECDBF8091EF
:100C5000540190915501019709F046C0209100017F
:100C60003091010180910201909103018217930755
:100C700084F480910A0190910B019093010180937B
:100C8000000160910001709101018EE690E00E94E8
:100C9000660960E081E00E946E0387E291E00E94B5
:100CA000B80368E081E00E946E038BE491E00E944B
:100CB000B8036EE081E00E946E0380910001909184
:100CC00001019F938F93DF92CF921F9283E08F93C6
:100CD0001F930F930E94B006C8010E94B8030FB67D
:100CE000F894DEBF0FBECDBF80915F0181111092DD
:100CF0005F019091620180916101981709F453CED0
:100D000081E080935F01809162018093610144CE14
:100D1000AA1BBB1B51E107C0AA1FBB1FA617B70721
:100D200010F0A61BB70B881F991F5A95A9F780953D
:100D30009095BC01CD01089597FB072E16F4009401
:100D400007D077FD09D00E94880607FC05D03EF445
:100D5000909581959F4F0895709561957F4F089567
:100D6000AEE0B0E0E6EBF6E00C9486090D891E8952
:100D70008F89988D26E02C831A83098397FF02C000
:100D800080E090E801979E838D83AE01455E5F4FC2
:100D9000698D7A8DCE0101960E94E0064D815E81BB
:100DA00057FD0AC02F813885421753070CF49A016A
:100DB000020F131FF80110822E96E4E00C94A20992
:100DC000ABE0B0E0E6EEF6E00C9478097C013B0184
:100DD0008A01FC0117821682838181FFC8C1CE017E
:100DE00001965C01F7019381F30193FD859193FFD7
:100DF00081913F01882309F453C1853239F493FD71
:100E0000859193FF81913F01853229F4B70190E0EC
:100E10000E94D008E7CF912C212C312CFFE1F31553
:100E200038F08B3211F190F4803209F1833229F1DC
:100E300037FC3CC020ED280F2A3050F536FE20C08C
:100E40008AE0989E200D1124922E06C08D3291F0DA
:100E5000803371F7689430F8F30193FD859193FF27
:100E600081913F018111DACF21C0689431F86894F3
:100E700032F8F2CF689433F8EFCF689434F8ECCFBF
:100E8000EAE02E9E200D1124222E689435F8E4CF3E
:100E90008E3229F436FC04C1689436F8DDCF8C36E6
:100EA00019F4689437F8D8CF8836B1F2982F9F7D1F
:100EB00095549330E0F08336A1F18337C1F1833547
:100EC00009F063C02801F2E04F0E511CF801C08008
:100ED000D180692D70E036FC02C06FEF7FEFC60154
:100EE0000E94BA084C01689437F882010AC00C5F6E
:100EF0001F4FFFE3F98388248394912C6501E894C4
:100F000037F833FE2DC0522C8114910471F5552011
:100F100009F468CFB70180E290E00E94D0085A94AB
:100F2000F6CFF801808189830E5F1F4FE4CF28013F
:100F3000F2E04F0E511CF801C080D180692D70E0A5
:100F400036FC02C06FEF7FEFC6010E94C5084C015E
:100F50008201D5CFB70180E290E00E94D0082A94A8
:100F60002814190409F0B0F7CECFF60137FC8591AB
:100F700037FE81916F01B70190E00E94D0085110B7
:100F80005A94F1E08F1A9108BFCF843619F0893650
:100F900009F077C0F80137FE6BC0608171818281F2
:100FA00093810C5F1F4FF32DFF763F2E97FF09C0F3
:100FB00090958095709561957F4F8F4F9F4F689466
:100FC00037F82AE030E0A5010E940009C82ECA18AF
:100FD0008C2C432C36FE0CC0E89440F8C91440F425
:100FE00034FE05C032FC03C0F32DFE7E4F2E892C4B
:100FF00044FE95C0FE01EC0DF11D8081803309F0A7
:1010000087C0242D297E422E842D8870582E43FCC3
:1010100095C040FE8FC09C2C821418F42C0C922C8E
:10102000981844FE91C0B70180E390E00E94D00878
:1010300042FE09C088E790E041FE02C088E590E0EA
:10104000B7010E94D008C91408F48AC0CA94D12CF0
:101050009FEFC91AD90ACA0CDB1CF60182916F01F5
:10106000B70190E00E94D008AC14BD04B1F74FCF97
:1010700060817181072E000C880B990B0E5F1F4F4A
:1010800092CFD32CE894D4F82AE030E0853739F1B8
:10109000232D297FD22E8F3601F148F48835A9F00F
:1010A000F701868197812B96E2E10C9494098037B1
:1010B00049F08837A9F7D4FE02C06894D2F820E13D
:1010C00030E00DC06894D4F8F6CF34FE03C0822F10
:1010D0008660D82E20E132E002C028E030E0F8013E
:1010E000D7FE0FC060817181828193810C5F1F4F99
:1010F000A5010E940009C82ECA183D2CE89437F8B3
:1011000067CF6081718190E080E00E5F1F4FF0CF6C
:1011100042FC02C0839478CF8394839475CF842D4E
:10112000867809F471CFF6CFB70180E290E00E9493
:10113000D00883948214C0F3512C73CF522C5818CA
:10114000821408F46ECFF8CF842D867809F47BCF13
:101150008BE241FE80E247FC8DE2B70190E071CF67
:10116000B70180E390E00E94D0089A946CCF8FEF93
:101170009FEF99CFFC010590615070400110D8F7A6
:10118000809590958E0F9F1F0895FC0161507040CF
:1011900001900110D8F7809590958E0F9F1F0895AC
:1011A0000F931F93CF93DF93182F092FEB018B81A0
:1011B00081FD09C01FEF0FEF812F902FDF91CF919D
:1011C0001F910F91089582FF14C02E813F818C8161
:1011D0009D81281739073CF4E881F981CF010196F8
:1011E0009983888310838E819F8101969F838E834C
:1011F000E3CFE885F985812F0995892BA1F3DACF13
:10120000FA01AA27283051F1203181F1E8946F9337
:101210006E7F6E5F7F4F8F4F9F4FAF4FB1E03ED0DD
:10122000B4E03CD0670F781F891F9A1FA11D680F7B
:10123000791F8A1F911DA11D6A0F711D811D911DAE
:10124000A11D20D009F468943F912AE0269F112423
:101250003019305D3193DEF6CF010895462F477087
:10126000405D4193B3E00FD0C9F7F6CF462F4F70E2
:10127000405D4A3318F0495D31FD4052419302D040
:10128000A9F7EACFB4E0A6959795879577956795E6
:10129000BA95C9F700976105710508959B01AC01E6
:1012A0000A2E06945795479537952795BA95C9F70D
:1012B000620F731F841F951FA01D0895F999FECF1B
:1012C00092BD81BDF89A992780B50895262FF99986
:1012D000FECF92BD81BDF89A019700B4021639F095
:1012E0001FBA20BD0FB6F894FA9AF99A0FBE089566
:1012F0002F923F924F925F926F927F928F929F9226
:10130000AF92BF92CF92DF92EF92FF920F931F9313
:10131000CF93DF93CDB7DEB7CA1BDB0B0FB6F894C4
:10132000DEBF0FBECDBF09942A88398848885F8404
:101330006E847D848C849B84AA84B984C884DF8075
:10134000EE80FD800C811B81AA81B981CE0FD11D59
:101350000FB6F894DEBF0FBECDBFED010895F8942F
:02136000FFCFBD
:101362005A003200AF00000017003200454531300C
:10137200392050726F6A6563740048616164692044
:1013820052617A7A616B004C6F773D200048696741
:10139200683D20002532640054656D703A20253284
:1013A200642E2564004C6F773F2000486967683FD0
:0213B200200019
:00000001FF
